:100000000C94B3000C94D4000C94D4000C94D40041
:100010000C94D4000C94EC020C94C7020C94D40001
:100020000C94D4000C94D4000C94D4000C94D40000
:100030000C94D4000C94D4000C94D4000C94D400F0
:100040000C94D4000C94D4000C94D4000C94D400E0
:100050000C94D4000C94D4000C94D4000C94D400D0
:100060000C94D4000C94D4000C94D4000C94D400C0
:100070000C94D4000C94D4000C94D4000C94D400B0
:100080000C94D4000C94D4000C94D4000C94D400A0
:100090000C94D4000C94D4000C94D4000C94D40090
:1000A0000C94D4000C94D4000C94D4000C94D40080
:1000B0000C94D4000C94D4000C94D4000C94D40070
:1000C0000C94D4000C94D4000C94D4000C94D40060
:1000D0000C94D4000C94D4000C946B040C94D400B5
:1000E0000C94D40007634236B79BD8A71A396856D8
:1000F00018AEBAAB558C1D3CB7CC5763BD6DEDFD4A
:10010000753EF6177231BF000000803F0800000006
:10011000BE922449123EABAAAA2ABECDCCCC4C3EFC
:1001200000000080BEABAAAAAA3E00000000BF00EB
:100130000000803F0000000000084178D3BB4387E7
:10014000D1133D190E3CC3BD4282AD2B3E68EC82FB
:1001500076BED98FE1A93E4C80EFFFBE01C4FF7F80
:100160003F000000000011241FBECFEFD1E2DEBF30
:10017000CDBF00E00CBF12E0A0E0B2E0ECE1F4E1A2
:1001800000E00BBF02C007900D92A030B107D9F775
:1001900012E0A0E0B2E001C01D92AA34B107E1F77D
:1001A0000E9440060C940C0A0C94000087B1876FE3
:1001B00087B988B1807888B9089586E69EE001976E
:1001C000F1F700004098419880E388B9429AEFEF38
:1001D000F7E43197F1F700C000004298E6E6FEE050
:1001E0003197F1F700004098419888B9429AEFEFB3
:1001F000F7E43197F1F700C000004298E6E6FEE030
:100200003197F1F700004098419888B9429A8FEFF2
:1002100097E40197F1F700C000004298E6E6FEE09F
:100220003197F1F700004098419880E288B9429AEE
:100230008FEF97E40197F1F700C00000429808950E
:1002400098B19F7098B998B1282F207F922B98B9B8
:1002500040984198429AEFEFF7E43197F1F700C0E8
:100260000000429898B19F7098B998B18295807FAC
:10027000892B88B940984198429A8FEF97E401976B
:10028000F1F700C000004298089586E69EE00197CD
:10029000F1F7000088E20E94200181E00E94200125
:1002A00086E00E9420018EE00E94200180E80E94EA
:1002B0002001089598B19F7098B998B1282F207F98
:1002C000922B98B9409A4198429AEFEFF7E4319710
:1002D000F1F700C00000429898B19F7098B998B1AA
:1002E0008295807F892B88B9409A4198429A8FEFF6
:1002F00097E40197F1F700C000004298089580E864
:100300000E9420010895CF93DF93EC018881882318
:1003100031F021960E945A0189918823D9F7DF9103
:10032000CF910895823079F0833018F48130C9F488
:1003300005C0833069F08430A1F40FC0862F815846
:100340000E9420010895862F81540E942001089563
:10035000862F8D560E9420010895862F8D520E946F
:10036000200108950F931F93CF93DF938A01E90132
:10037000882311F0662319F40E947F0102C00E94B5
:100380009201C530D10571F4C80160E177E20E94A5
:10039000F809CB01C09690932802809327020E940F
:1003A0005A0103C0C430D105B9F4C80168EE73E046
:1003B0000E94F809CB0170932C0260932B026AE033
:1003C00070E00E94F809C09690934702809346021D
:1003D0000E945A0181E001C080E0C330D10511F0D4
:1003E0008130B1F4C80164E670E00E94F809CB01E5
:1003F00070932C0260932B026AE070E00E94F8096F
:10040000C09690934102809340020E945A0181E07D
:10041000C230D10511F08130B1F42AE030E0C801DA
:10042000B9010E94F809CB0170932C0260932B0252
:10043000B9010E94F809C09690933902809338025E
:100440000E945A0181E0C130D10511F0813061F480
:10045000C8016AE070E00E94F809C09690934502D6
:10046000809344020E945A01C630D1051CF085E4F5
:100470000E945A01DF91CF911F910F91089584B18D
:10048000876084B985B1876085B9089510BA11BABB
:1004900010920701109208010895EAE7F0E0108237
:1004A00010927B0080E280937C0080E880BF86E829
:1004B0008083089583E58CBD1DBC1EBC08952898DB
:1004C0008EBD0DB407FEFDCF86E69EE00197F1F7E5
:1004D000000080E58EBD0DB407FEFDCF8EB5289AD5
:1004E0000895883018F098E090937B0087708062C0
:1004F00080937C00EAE7F0E08081806480838081E3
:1005000084FFFDCF80917900EAE7F0E0908190616F
:10051000908310927B0008953B9A4398089581B18F
:100520008F6081B982B1807F82B9EAE0F1E0808199
:1005300088618083EBE0F1E08081886180830895A9
:100540006C98749A08956D98759A08950E948F0218
:100550000E94A0020E94A3020E948C020E94D60068
:100560000E9446020E943F020895F894EAE6F0E0F5
:10057000808182608083EC9A78940895F894EAE60A
:10058000F0E0808188608083ED9A789408951F92CE
:100590000F920FB60F9211248F939F93AF93BF9337
:1005A0008091000290910102A0910202B091030299
:1005B0000196A11DB11D8093000290930102A093AA
:1005C0000202B0930302BF91AF919F918F910F9060
:1005D0000FBE0F901F9018951F920F920FB60F929B
:1005E00011248F939F93AF93BF93809104029091B6
:1005F0000502A0910602B09107020196A11DB11D4E
:100600008093040290930502A0930602B093070220
:10061000BF91AF919F918F910F900FBE0F901F9040
:100620001895E1E2F1E010828FEF8093250191E0CF
:1006300090932401109229018093280110922B019C
:1006400080932A0110922D0180932C0189EA8093D6
:1006500020018BE0808308958093280160932A0114
:10066000089592B1907F8F70982B92B9089586E08B
:100670000E943103089589E00E943103089585E0C6
:100680000E94310308958AE00E943103089580E0BA
:100690000E943103089586B1886088B9089586B1B3
:1006A000877F88B908950F931F93CF93BC0180E093
:1006B00090E00E943D0728E431EE42E850E40E94B9
:1006C000A4060E941107DC01CB01A0E0B0E010926B
:1006D0000002109201021092020210920302109284
:1006E0000402109205021092060210920702F1E035
:1006F000C0E04091000250910102609102027091AD
:10070000030200910402109105022091060230912B
:100710000702EF2F481759076A077B0708F4EC2FE9
:10072000EE2349F44F2F081719072A073B0708F44F
:100730004C2F4423F1F20E944703CF911F910F9158
:100740000895BC0180E090E00E943D0725EE30ED69
:100750004AEA50E40E94A4060E941107462F572F30
:10076000682F792F1092000210920102109202025B
:10077000109203028091000290910102A091020266
:10078000B0910302481759076A077B0798F70E9440
:1007900047030895CF93DF93EC010E943703CE0106
:1007A0000E94A103DF91CF910895CF93DF93EC01D5
:1007B0000E943B03CE010E94A103DF91CF910895D7
:1007C000CF93DF93EC010E943F03CE010E945303BD
:1007D000DF91CF910895CF93DF93EC010E94430303
:1007E000CE010E945303DF91CF9108950F931F9381
:1007F000682F70E080E090E00E943D072FEE39EC1A
:1008000043E95FE30E942E08B62FA72F382F292F28
:1008100060E070E080E89FE3422F0B2F1A2F232F18
:10082000342FA90198010E94A4062AE939EF4EE26B
:1008300055E40E94CB0720E030E040E251E40E9402
:10084000CB070E940C07882777FD8095982F0E9480
:100850003F070E940C07862F972F23E081329207D3
:1008600010F080E293E01F910F910895CF93DF93F2
:10087000D82FC62F842F0E947102482F80933302F5
:100880008D2F6C2F50E023E030E00E94B201DF9109
:10089000CF910895E1E3F1E010821092300186E0FB
:1008A000809332018FE5809334011092350188EDF9
:1008B00080830895F8940E94A6020E94B5020E94C7
:1008C000BE020E944A040E945A020E9411030E9422
:1008D0004D02789408951F920F920FB60F920BB6A7
:1008E0000F9211242F933F934F935F936F937F93B6
:1008F0008F939F93AF93BF93EF93FF9340913601F4
:1009000040933B0281E061E050E024E030E00E944F
:10091000B2018BE00E9471020E94F603AC0182E0FA
:100920006EE023E030E00E94B201809116029091C7
:1009300017028130910581F480913B028093090276
:1009400089E780933B0280911802909119020196E9
:1009500090931902809318028091140290911502CD
:1009600081309105A9F480913B0280930902809126
:100970000902880F809309028AE780933B028091E5
:100980001202909113020196909313028093120227
:1009900080910E0290910F028130910581F4809137
:1009A0003B028093080281E480933B028091100215
:1009B0009091110201969093110280931002809100
:1009C0000C0290910D0281309105A9F480913B02B7
:1009D0008093080280910802880F8093080282E4C5
:1009E00080933B0280910A0290910B0201969093B2
:1009F0000B0280930A0280913B02813311F40E9422
:100A0000370380913B02823311F40E943B038091B3
:100A10003B02833311F40E943F0380913B028433F5
:100A200011F40E94430380913B02853311F40E942C
:100A3000470380913B02863311F40E944B0380915F
:100A40003B02873311F40E944F0380913B028836AA
:100A500029F484E00E9471028093360180913B0268
:100A6000893629F485E00E947102809336018091D5
:100A70003B028A3629F486E00E9471028093360197
:100A800080913B028B3629F487E00E9471028093AB
:100A9000360180913B028C3629F488E00E94710275
:100AA0008093360180913B028D3629F485E00E94C7
:100AB0005F028093360180913B028E3629F486E0F6
:100AC0000E945F028093360180913B028F3629F4A9
:100AD00087E00E945F028093360180913B0280375D
:100AE00029F483E00E9471028093360180913B02D9
:100AF000813729F482E00E9471028093360180914F
:100B00003B02823729F481E00E9471028093360112
:100B100080913B02833729F489E00E94710280931F
:100B2000360180913B02843729F48AE00E947102E9
:100B30008093360180913B02853729F48BE00E9437
:100B400071028093360180913B02863729F48CE054
:100B50000E9471028093360180913B02873729F40D
:100B60008DE00E9471028093360180913B028837AC
:100B700021F480913E028093360180913B028937B7
:100B8000A9F481E090E0909317028093160280917F
:100B90001802909119028130910541F410921702C8
:100BA00010921602109219021092180280913B02C4
:100BB0008A37A9F481E090E09093150280931402A3
:100BC00080911202909113028130910541F41092AC
:100BD00015021092140210921302109212028091C8
:100BE0003B028134D9F481E090E090930F0280932E
:100BF0000E0280911002909111028130910571F4E2
:100C000010920F0210920E02109211021092100216
:100C100080910902609108020E942C0380913B029E
:100C20008234D9F481E090E090930D0280930C021D
:100C300080910A0290910B028130910571F410921B
:100C40000D0210920C0210920B0210920A02809177
:100C50000902609108020E942C03FF91EF91BF915D
:100C6000AF919F918F917F916F915F914F913F9144
:100C70002F910F900BBE0F900FBE0F901F901895E5
:100C80000E945A040E94DD000E944501C8E2D1E0A2
:100C900089E00E947102809348028AE00E947102FA
:100CA000809343028BE00E947102809322028CE0C9
:100CB0000E94710280933C028DE00E947102809339
:100CC000340280E00E94710280933E0284E00E9420
:100CD00071028093260285E00E94710280933702A0
:100CE00086E00E9471028093250287E00E947102D3
:100CF00080932E0288E00E94710280933F0285E07B
:100D00000E945F0280933A0286E00E945F02809315
:100D1000290287E00E945F028093320283E00E94F2
:100D2000710280932D0282E00E9471028093490239
:100D300081E00E94710280932F02888180933102AA
:100D4000888180933D02A4CF0CD0EBC0E3D040F06B
:100D5000DAD030F021F45F3F19F0CCC0511115C149
:100D6000CFC0F0D098F39923C9F35523B1F3951B65
:100D7000550BBB27AA2762177307840738F09F5FBC
:100D80005F4F220F331F441FAA1FA9F333D00E2E2B
:100D90003AF0E0E830D091505040E695001CCAF798
:100DA00029D0FE2F27D0660F771F881FBB1F26175D
:100DB00037074807AB07B0E809F0BB0B802DBF0130
:100DC000FF2793585F4F2AF09E3F510568F092C06D
:100DD000DCC05F3FECF3983EDCF386957795679532
:100DE000B795F7959F5FC9F7880F911D96958795E1
:100DF00097F90895E1E0660F771F881FBB1F621700
:100E000073078407BA0720F0621B730B840BBA0BBD
:100E1000EE1F88F7E095089504D06894B111B5C02D
:100E2000089598D088F09F5790F0B92F9927B7511F
:100E3000A0F0D1F0660F771F881F991F1AF0BA959E
:100E4000C9F712C0B13081F09FD0B1E008959CC0C5
:100E5000672F782F8827B85F39F0B93FCCF3869594
:100E600077956795B395D9F73EF4909580957095F1
:100E700061957F4F8F4F9F4F0895E89409C097FB6E
:100E80003EF490958095709561957F4F8F4F9F4F61
:100E90009923A9F0F92F96E9BB279395F6958795A5
:100EA00077956795B795F111F8CFFAF4BB0F11F468
:100EB00060FF1BC06F5F7F4F8F4F9F4F16C088230F
:100EC00011F096E911C0772321F09EE8872F762F45
:100ED00005C0662371F096E8862F70E060E02AF086
:100EE0009A95660F771F881FDAF7880F9695879572
:100EF00097F9089597F99F6780E870E060E008959A
:100F00009FEF80EC089500240A9416161706180621
:100F10000906089500240A941216130614060506FD
:100F20000895092E0394000C11F4882352F0BB0F8E
:100F300040F4BF2B11F460FF04C06F5F7F4F8F4FF1
:100F40009F4F089557FD9058440F551F59F05F3F2C
:100F500071F04795880F97FB991F61F09F3F79F0DB
:100F600087950895121613061406551FF2CF46955D
:100F7000F1DF08C0161617061806991FF1CF8695DF
:100F80007105610508940895E894BB2766277727C3
:100F9000CB0197F908950BD0C4CFB5DF28F0BADFA5
:100FA00018F0952309F0A6CFABCF1124EECFCADFFE
:100FB000A0F3959FD1F3950F50E0551F629FF0016C
:100FC000729FBB27F00DB11D639FAA27F00DB11DC5
:100FD000AA1F649F6627B00DA11D661F829F22274E
:100FE000B00DA11D621F739FB00DA11D621F839FD5
:100FF000A00D611D221F749F3327A00D611D231FAB
:10100000849F600D211D822F762F6A2F11249F57F8
:1010100050408AF0E1F088234AF0EE0FFF1FBB1F1B
:10102000661F771F881F91505040A9F79E3F5105BA
:1010300070F060CFAACF5F3FECF3983EDCF386956B
:1010400077956795B795F795E7959F5FC1F7FE2B65
:10105000880F911D9695879597F90895FA01EE0FDF
:10106000FF1F30962105310599F16115710561F475
:101070008038BFE39B0749F168949038810561F09F
:101080008038BFEF9B0741F0992342F5FF3FE10510
:101090003105210511F1E8940894E795D901AA23B7
:1010A00029F4AB2FBE2FF85FD0F310C0FF5F70F4B0
:1010B000A695E0F7F73950F019F0FF3A38F49F772A
:1010C0009F930CD00F9007FC905808953EF018CFD6
:1010D00060E070E080E89FE308954FE79F775F93BB
:1010E0004F933F932F939ED02F913F914F915F91BC
:1010F00052DF05C019F40EF0FDCE46CF01CF2ADF36
:10110000C8F39638C0F707F80F92E8942BE33AEA51
:1011100048EB5FE74EDF0F920F920F924DB75EB72D
:101120000F92C0D0E4EEF0E016D04F915F91EF91B6
:10113000FF91E595EE1FFF1F49F0FE57E068442739
:10114000EE0F441FFA95E1F74195550B32D00F9001
:1011500007FE26C00895DF93CF931F930F93FF924E
:10116000EF92DF927B018C01689405C0DA2EEF01CB
:101170001EDFFE01E894A591259135914591559189
:10118000AEF3EF01D4D0FE019701A801DA9479F70C
:10119000DF90EF90FF900F911F91CF91DF91089515
:1011A0009B01AC0160E070E080E89FE3CDCDA2CE72
:1011B00011C1D0DEE8F39923D9F3940F511DBBF38D
:1011C0009150504094F059F0882332F0660F771F09
:1011D000881F91505040C1F79E3F510544F7880F3A
:1011E000911D9695879597F908955F3FACF0983ECD
:1011F0009CF0BB27869577956795B79508F4B16005
:101200009395C1F7BB0F58F711F460FFE8CF6F5FFC
:101210007F4F8F4F9F4FE3CFB8CE0EF0DBC070CE25
:10122000689468CE97DEC8F39923D1F3C6F3DF93B1
:10123000CF931F930F93FF92C92FDD2788232AF0A6
:101240002197660F771F881FDAF720E030E040E82B
:101250005FEB9FE3883920F0803E30F021968F7756
:1012600055D0ECE0F1E003C051D0E9E3F1E073DFE9
:101270008B01BE01EC01FB2E6F5771097595771F2D
:10128000880B990BFCDD28E132E741E35FE38FDE59
:10129000AF2D9801AE01FF900F911F91CF91DF917B
:1012A00046D03FCEFA01DC01AA0FBB1F9B01AC0167
:1012B000BF5728F422273327442750781FC0B7513F
:1012C00088F4AB2F0024469537952795011CA395EC
:1012D000D2F3002069F0220F331F441FB395DAF3D5
:1012E0000DD013C061307105A0E88A07B94630F40B
:1012F0009B01AC016627772788279078309621F0EC
:10130000208331834283538308955058BB27AA27F3
:101310000ED007CEF8DD30F0FDDD20F031F49F3F38
:1013200011F41EF4EDCD0EF4E095E7FBE3CDE92FCB
:1013300009DE80F3BA17620773078407950718F070
:1013400071F49EF521CE0EF4E0950B2EBA2FA02D50
:101350000B01B90190010C01CA01A0011124FF2762
:10136000591B99F0593F50F4503E68F11A16F0405D
:10137000A22F232F342F4427585FF3CF469537955C
:101380002795A795F0405395C9F77EF41F16BA0B21
:10139000620B730B840BBAF09150A1F0FF0FBB1FCF
:1013A000661F771F881FC2F70EC0BA0F621F731F18
:1013B000841F48F4879577956795B795F7959E3F75
:1013C00008F0B3CF9395880F08F09927EE0F979503
:1013D000879508959F3F31F0915020F48795779538
:1013E0006795B795880F911D9695879597F90895FC
:1013F000AA1BBB1B51E107C0AA1FBB1FA617B7073B
:1014000010F0A61BB70B881F991F5A95A9F7809556
:0C1410009095BC01CD010895F894FFCF29
:00000001FF
